:020000040000FA
:060000000A128A110C280F
:10000800FE00030EF0000A08F1000A128A111D2DE5
:100018000A128A110F28F901FA01FB018313203013
:1000280084003F300A128A1107260A128A118301B6
:100038000A128A111F280A128A116D240A128A11BB
:100048000A128A11C7250A128A110A128A11E7258B
:100058000A128A1183120313BF010130CF004F081F
:10006800C00000300A128A11AC240A128A118312C5
:100078000313BF010130CF004F08C00001300A123E
:100088008A11AC240A128A11E830F2000330F30016
:100098000A128A11F4250A128A1127300A128A11C3
:1000A80060250A128A112D300A128A1160250A1257
:1000B8008A1133300A128A1160250A128A113930DE
:1000C8000A128A1160250A128A116A280A128A11EC
:1000D80029260A128A1183120313CF004F08F2004F
:1000E80027300A128A11FE250A128A110A128A1169
:1000F80023260A128A1183120313CF004F08F20035
:100108002D300A128A11FE250A128A110A128A1142
:100118001D260A128A1183120313CF004F08F2001A
:1001280033300A128A11FE250A128A110A128A111C
:1001380017260A128A1183120313CF004F08F20000
:1001480039300A128A11FE250A128A110A128A11F6
:100158000F260A128A1172087304031DB428B528E1
:100168006A28E830F2000330F3000A128A11F425F5
:100178000A128A1127300A128A117C220A128A115D
:100188002D300A128A117C220A128A1133300A127F
:100198008A117C220A128A1139300A128A117C22A9
:1001A8000A128A1183120313C3012A08CF00D0014F
:1001B8004F08C4005008C5000230D1005108C600DD
:1001C80000300A128A118E210A128A110330831212
:1001D8000313CF004F08C3002908D000D1015008ED
:1001E800C4005108C5000230D2005208C6000030D1
:1001F8000A128A118E210A128A110B3083120313F4
:10020800CF004F08C3002F08D000D1015008C40008
:100218005108C5000230D2005208C60000300A1248
:100228008A118E210A128A110E3083120313CF000D
:100238004F08C3002E08D000D1015008C40051084F
:10024800C5000230D2005208C60000300A128A11D6
:100258008E210A128A1183120313C3013508CF00B5
:10026800D0014F08C4005008C5000230D100510821
:10027800C60001300A128A118E210A128A1103302F
:1002880083120313CF004F08C3003408D000D101F4
:100298005008C4005108C5000230D2005208C600F8
:1002A80001300A128A118E210A128A110B30831228
:1002B8000313CF004F08C3003B08D000D1015008FA
:1002C800C4005108C5000230D2005208C6000130EF
:1002D8000A128A118E210A128A110E308312031310
:1002E800CF004F08C3003A08D000D1015008C4001D
:1002F8005108C5000230D2005208C60001300A1267
:100308008A118E210A128A116A286A286A280A1212
:100318008A110C2883120313CA00C51B9429962935
:10032800013097290030C7004708CC004C08031952
:100338009E299F29A529C409C509C40A0319C50A04
:10034800A5294308C7004708F5004A080A128A1178
:10035800A2250A128A11103083120313CD00273008
:10036800CE000530C7004708CB00E92983120313E4
:100378004E08F3004D08F2004508F5004408F40063
:100388000A128A1197230A128A1172087304031D2C
:10039800CE29CF29032A013083120313CB02D52992
:1003A800032A0A30F2000030F3004E08F5004D0829
:1003B800F4000A128A1197230A128A117308831209
:1003C8000313CE007208CD00E9294E08803AFF00D9
:1003D80080307F02031DF22901304D020318F529F0
:1003E800F629BA29032A032A30300A128A11E72487
:1003F8000A128A11013083120313C602032A8312D8
:1004080003134B084C07C700C801C80D4808803AB9
:10041800C90080304902031D132A46084702031801
:10042800162A172A212A02308312031346020318B8
:100438001E2A1F2AF829212A212A831203134C086D
:100448000319272A282A2F2A2D300A128A11E7246D
:100458000A128A112F2A831203134E08F3004D083B
:10046800F2004508F5004408F4000A128A1197239F
:100478000A128A117208303E0A128A11E7240A12F7
:100488008A11831203134E08F3004D08F200450841
:10049800F5004408F4000A128A110A240A128A1183
:1004A800730883120313C5007208C4000A30F200EF
:1004B8000030F3004E08F5004D08F4000A128A11C6
:1004C80097230A128A11730883120313CE00720845
:1004D800CD004E08803AFF0080307F02031D762A47
:1004E80001304D020318792A7A2A2F2A7B2A08001C
:1004F80083120313C30043088400831300080319FD
:10050800862A872A0B2B3C30F2000030F30001309A
:10051800BF00430A84003F0880070008C000C101EB
:100528004008F4004108F5000A128A110A240A1248
:100538008A11720883120313C200430A8400420816
:1005480083138000430A84000008031DAC2AAD2AE7
:100558000B2B3C30F2000030F3000130BF004308A1
:10056800023E84003F0880070008C000C10140081F
:10057800F4004108F5000A128A110A240A128A11A5
:10058800720883120313C2004308023E8400420823
:10059800831380004308023E84000008031DD52A07
:1005A800D62A0B2B1830F2000030F3000130BF00C0
:1005B8004308033E84003F0880070008C000C101CB
:1005C8004008F4004108F5000A128A110A240A12A8
:1005D8008A11720883120313C2004308033E840081
:1005E8004208831380004308033E84000008031D6B
:1005F800FE2AFF2A0B2B4308043E840001308007A3
:10060800840A0318800A0B2B0B2B0B2B0B2B0800CF
:10061800F4008312031308117408F2000430031065
:10062800F20CFF3E031D132B7208F3000430031075
:10063800F30DFF3E031D1B2B08080F3973048800B8
:10064800881174030319292B2A2B312B02307406C5
:10065800031D2F2B302B3B2B312B0330F30097300E
:10066800F200F20B352BF30B352B3A2B402B0D30C8
:10067800F200F20B3D2B402B831203138815F03048
:100688007405F20020307206031D4B2B4C2B6A2B8D
:1006980008117408F20004300310F20CFF3E031D29
:1006A800502B7208F30004300310F30DFF3E031DB6
:1006B800582B08080F397304880088110D30F20090
:1006C800F20B642B8312031388156A2B0811740824
:1006D800F20004300310F20DFF3E031D6E2B0808D4
:1006E8000F39720488008811740303197C2B7D2B41
:1006F800842B02307406031D822B832B8E2B842BB4
:100708000330F3009730F200F20B882BF30B882BA1
:100718008D2B932B0D30F200F20B902B932B831221
:1007280003138815080083120313C001F31F9D2BC0
:100738009E2BA62BF209F309F20A0319F30AC0014A
:10074800C00AA62BF51FA92BAA2BB42BF409F5096F
:10075800F40A0319F50A0130F6007608C006B42B2E
:10076800C101C201720873040319BB2BBC2BF92BFE
:10077800BF01BF0ACB2B01300310F20DF30DFF3E72
:10078800031DC02B0130F6007608BF07CB2BF31FE3
:10079800CE2BCF2BBF2BD12BD12B01300310C10D6A
:1007A800C20DFF3E031DD22B73087502031DDE2BFD
:1007B80072087402031CE12BE22BEA2B7208F40284
:1007C8007308031CF503F5024114EA2B01300310EA
:1007D800F30CF20CFF3E031DEB2B0130BF02031D8F
:1007E800F62BF72BD12BF92BF92B40080319FD2BEE
:1007F800FE2B042CC109C209C10A0319C20A042C20
:100808004208F3004108F200092C0800F801F51F1E
:100818000E2C0F2C172CF409F509F40A0319F50A04
:10082800F801F80A172CF31F1A2C1B2C212CF2099B
:10083800F309F20A0319F30A212C72087304031945
:10084800262C272C5C2CF701F70A362C01300310D4
:10085800F20DF30DFF3E031D2B2C0130F600760838
:10086800F707362CF31F392C3A2C2A2C3C2C3C2C1D
:1008780073087502031D422C72087402031C452C70
:10088800462C4D2C7208F4027308031CF503F5027C
:100898004D2C01300310F30CF20CFF3E031D4E2CBF
:1008A8000130F702031D592C5A2C3C2C5C2C5C2C73
:1008B80078080319602C612C672CF409F509F40AEF
:1008C8000319F50A672C7508F3007408F2006C2CFC
:1008D80008006430F2000030F3000A128A1177250C
:1008E8000A128A1183160313081188110812881234
:1008F800081388136430F2000030F3000A128A11DA
:1009080077250A128A1183120313881528300A12D0
:100918008A110C230A128A110C300A128A110C232C
:100928000A128A1101300A128A110C230A128A113A
:1009380002300A128A110C230A128A116430F2005A
:100948000030F3000A128A1177250A128A1108006A
:1009580083120313C2003F08F8007808C1003F085B
:10096800F8007808F50042080A128A11A2250A122E
:100978008A11D72C83120313400884000A128A11A3
:1009880049250A128A110A128A11E7240A128A11C1
:100998000130F800780883120313C0070130F8000B
:1009A8007808C107D72C83120313400884000A1261
:1009B8008A1149250A128A11003A031DE42CE52CF4
:1009C800BE2CE62C0800F4008312031308157408E3
:1009D800F20004300310F20CFF3E031DEE2C7208E7
:1009E800F30004300310F30DFF3E031DF62C080836
:1009F8000F397304880088110D30F200F20B022DB4
:100A080083120313881508157408F20004300310C4
:100A1800F20DFF3E031D0B2D08080F3972048800E4
:100A280088110D30F200F20B172D8312031388156D
:100A380008000B1D202D212D282D0B110A128A11BB
:100A4800B5250A128A11282D831203130C1C2D2D8B
:100A58002E2D352D0C100A128A118E250A128A1194
:100A6800352D831203138C1C3A2D3B2D422D8C10EF
:100A78000A128A11D7250A128A11422D71088A0092
:100A8800700E8300FE0E7E0E090005308A000408F1
:100A9800840A82070034303430343A343034303405
:100AA800203420342034203420342034303430347E
:100AB8003A34303430340034F2007208840083133E
:100AC8008001720A840080017208023E840080015D
:100AD8007208033E840080017208043E840080018D
:100AE800840A80010800862DC730F4007B2DF40BA2
:100AF8007A2D7E2D7F2D0130F2020030031CF30386
:100B0800F302862D72087304031D8B2D8C2D782D0E
:100B18008D2D0800FC30831203138F0018308E00CF
:100B2800220823040319992D9A2DA12D0130A20220
:100B38000030031CA303A302A12D0800F7007708C7
:100B4800F60006300310F60DFF3E031DA62D7508AE
:100B580076077F39803E0A128A110C230A128A11FD
:100B680008000630831203138100240825040319A2
:100B7800BE2DBF2DC62D0130A4020030031CA503D5
:100B8800A502C62D08008B138316031381110108D3
:100B9800F83901388100811206308312031381006D
:100BA8008B128B17080083120313200821040319E2
:100BB800DE2DDF2DE62D0130A0020030031CA1033D
:100BC800A102E62D0800831603130814881483165F
:100BD80003170810881083160313051485140800DA
:100BE80006308312031381007308A5007208A4005D
:100BF8008B160800F4007208F30074088400730868
:100C080083138000080064008001840A0406031925
:100C180000340406082E831203132508F300240861
:100C2800F200162E080083120313080C01391C2E3B
:100C380008008312031308080139222E08008312C2
:100C48000313050C0139282E080083120313050825
:060C580001392E2E0800F8
:04400E00D4E0FFFFFC
:00000001FF
