:020000040000FA
:060000000A128A110C280F
:10000800FE00030EF0000A08F1000A128A11202DE2
:100018000A128A110F28F901FA01FB018313203013
:1000280084003F300A128A1106260A128A118301B7
:100038000A128A111F288316031788010A128A11C7
:1000480070240A128A110A128A11CA250A128A1100
:100058000A128A111E260A128A1183120313BF017B
:100068000130CF004F08C00000300A128A11AF24B7
:100078000A128A1183120313BF010130CF004F08FF
:10008800C00001300A128A11AF240A128A11E8301E
:10009800F2000330F3000A128A11EA250A128A11C3
:1000A80027300A128A1163250A128A112D300A1282
:1000B8008A1163250A128A1133300A128A116325BC
:1000C8000A128A1139300A128A1163250A128A1112
:1000D8006D280A128A112B260A128A118312031319
:1000E800CF004F08F30027300A128A11F4250A12AC
:1000F8008A110A128A1125260A128A1183120313F9
:10010800CF004F08F3002D300A128A11F4250A1285
:100118008A110A128A110E260A128A1183120313EF
:10012800CF004F08F30033300A128A11F4250A125F
:100138008A110A128A11FD250A128A1183120313E1
:10014800CF004F08F30039300A128A11F4250A1239
:100158008A110A128A1116260A128A117208730461
:10016800031DB728B8286D28E830F2000330F300E3
:100178000A128A11EA250A128A1127300A128A11EC
:100188007F220A128A112D300A128A117F220A123E
:100198008A1133300A128A117F220A128A113930E1
:1001A8000A128A117F220A128A1183120313C301C9
:1001B8002A08CF00D0014F08C4005008C5000230FB
:1001C800D1005108C60000300A128A1191210A1282
:1001D8008A11033083120313CF004F08C300290884
:1001E800D000D1015008C4005108C5000230D20027
:1001F8005208C60000300A128A1191210A128A1187
:100208000B3083120313CF004F08C3002F08D00010
:10021800D1015008C4005108C5000230D20052086C
:10022800C60000300A128A1191210A128A110E3072
:1002380083120313CF004F08C3002E08D000D1014A
:100248005008C4005108C5000230D2005208C60048
:1002580000300A128A1191210A128A11831203139B
:10026800C3013508CF00D0014F08C4005008C500AD
:100278000230D1005108C60001300A128A119121BA
:100288000A128A11033083120313CF004F08C300E8
:100298003408D000D1015008C4005108C50002300C
:1002A800D2005208C60001300A128A1191210A129E
:1002B8008A110B3083120313CF004F08C3003B0889
:1002C800D000D1015008C4005108C5000230D20046
:1002D8005208C60001300A128A1191210A128A11A5
:1002E8000E3083120313CF004F08C3003A08D00022
:1002F800D1015008C4005108C5000230D20052088C
:10030800C60001300A128A1191210A128A116D2839
:100318006D286D280A128A110C2883120313CA004B
:10032800C51B9729992901309A290030C700470829
:10033800CC004C080319A129A229A829C409C50978
:10034800C40A0319C50AA8294308C7004708F500C5
:100358004A080A128A11A5250A128A111030831236
:100368000313CD002730CE000530C7004708CB0067
:10037800EC29831203134E08F3004D08F2004508D8
:10038800F5004408F4000A128A119A230A128A1105
:1003980072087304031DD129D229062A0130831259
:1003A8000313CB02D829062A0A30F2000030F300E2
:1003B8004E08F5004D08F4000A128A119A230A1211
:1003C8008A11730883120313CE007208CD00EC293A
:1003D8004E08803AFF0080307F02031DF529013066
:1003E8004D020318F829F929BD29062A062A3030B2
:1003F8000A128A11EA240A128A110130831203139D
:10040800C602062A831203134B084C07C700C8010B
:10041800C80D4808803AC90080304902031D162AD1
:10042800460847020318192A1A2A242A0230831276
:10043800031346020318212A222AFB29242A242AE4
:10044800831203134C0803192A2A2B2A322A2D3027
:100458000A128A11EA240A128A11322A8312031311
:100468004E08F3004D08F2004508F5004408F40072
:100478000A128A119A230A128A117208303E0A1245
:100488008A11EA240A128A11831203134E08F30010
:100498004D08F2004508F5004408F4000A128A11D4
:1004A8000D240A128A11730883120313C5007208F7
:1004B800C4000A30F2000030F3004E08F5004D0881
:1004C800F4000A128A119A230A128A1173088312F5
:1004D8000313CE007208CD004E08803AFF0080302A
:1004E8007F02031D792A01304D0203187C2A7D2AD8
:1004F800322A7E2A080083120313C30043088400AB
:10050800831300080319892A8A2A0E2B3C30F2002B
:100518000030F3000130BF00430A84003F08800721
:100528000008C000C1014008F4004108F5000A12A3
:100538008A110D240A128A11720883120313C20049
:10054800430A8400420883138000430A8400000899
:10055800031DAF2AB02A0E2B3C30F2000030F30006
:100568000130BF004308023E84003F0880070008AE
:10057800C000C1014008F4004108F5000A128A11C0
:100588000D240A128A11720883120313C200430849
:10059800023E84004208831380004308023E840020
:1005A8000008031DD82AD92A0E2B1830F200003073
:1005B800F3000130BF004308033E84003F08800772
:1005C8000008C000C1014008F4004108F5000A1203
:1005D8008A110D240A128A11720883120313C200A9
:1005E8004308033E84004208831380004308033E07
:1005F80084000008031D012B022B0E2B4308043E28
:10060800840001308007840A0318800A0E2B0E2B01
:100618000E2B0E2B0800F400831203130811740824
:10062800F20004300310F20CFF3E031D162B720873
:10063800F30004300310F30DFF3E031D1E2B0808C2
:100648000F39730488008811740303192C2B2D2B80
:10065800342B02307406031D322B332B3E2B342BE4
:100668000330F3009730F200F20B382BF30B382BE2
:100678003D2B432B0D30F200F20B402B432B831202
:1006880003138815F0307405F20020307206031D3C
:100698004E2B4F2B6D2B08117408F20004300310F9
:1006A800F20CFF3E031D532B7208F30004300310B5
:1006B800F30DFF3E031D5B2B08080F3973048800F8
:1006C80088110D30F200F20B672B83120313881583
:1006D8006D2B08117408F20004300310F20DFF3E70
:1006E800031D712B08080F397204880088117403E0
:1006F80003197F2B802B872B02307406031D852B53
:10070800862B912B872B0330F3009730F200F20BE6
:100718008B2BF30B8B2B902B962B0D30F200F20BBF
:10072800932B962B83120313881508008312031347
:10073800C001F31FA02BA12BA92BF209F309F20A80
:100748000319F30AC001C00AA92BF51FAC2BAD2B66
:10075800B72BF409F509F40A0319F50A0130F60074
:100768007608C006B72BC101C201720873040319C9
:10077800BE2BBF2BFC2BBF01BF0ACE2B01300310B1
:10078800F20DF30DFF3E031DC32B0130F600760872
:10079800BF07CE2BF31FD12BD22BC22BD42BD42B9C
:1007A80001300310C10DC20DFF3E031DD52B730888
:1007B8007502031DE12B72087402031CE42BE52B60
:1007C800ED2B7208F4027308031CF503F5024114BB
:1007D800ED2B01300310F30CF20CFF3E031DEE2B42
:1007E8000130BF02031DF92BFA2BD42BFC2BFC2B59
:1007F80040080319002C012C072CC109C209C10AA1
:100808000319C20A072C4208F3004108F2000C2C15
:100818000800F801F51F112C122C1A2CF409F509FF
:10082800F40A0319F50AF801F80A1A2CF31F1D2C0B
:100838001E2C242CF209F309F20A0319F30A242CBA
:10084800720873040319292C2A2C5F2CF701F70A64
:10085800392C01300310F20DF30DFF3E031D2E2C31
:100868000130F6007608F707392CF31F3C2C3D2C95
:100878002D2C3F2C3F2C73087502031D452C720844
:100888007402031C482C492C502C7208F40273087B
:10089800031CF503F502502C01300310F30CF20C85
:1008A800FF3E031D512C0130F702031D5C2C5D2C0B
:1008B8003F2C5F2C5F2C78080319632C642C6A2C5E
:1008C800F409F509F40A0319F50A6A2C7508F30006
:1008D8007408F2006F2C08006430F2000030F30056
:1008E8000A128A117A250A128A118316031308112B
:1008F800881108128812081388136430F200003037
:10090800F3000A128A117A250A128A118312031334
:10091800881528300A128A110F230A128A110C30FE
:100928000A128A110F230A128A1101300A128A1137
:100938000F230A128A1102300A128A110F230A128F
:100948008A116430F2000030F3000A128A117A2505
:100958000A128A11080083120313C2003F08F80024
:100968007808C1003F08F8007808F50042080A1224
:100978008A11A5250A128A11DA2C8312031340085A
:1009880084000A128A114C250A128A110A128A1145
:10099800EA240A128A110130F80078088312031336
:1009A800C0070130F8007808C107DA2C8312031356
:1009B800400884000A128A114C250A128A11003A4A
:1009C800031DE72CE82CC12CE92C0800F400831245
:1009D800031308157408F20004300310F20CFF3EEC
:1009E800031DF12C7208F30004300310F30DFF3ED1
:1009F800031DF92C08080F397304880088110D307D
:100A0800F200F20B052D83120313881508157408DC
:100A1800F20004300310F20DFF3E031D0E2D0808EE
:100A28000F397204880088110D30F200F20B1A2D6C
:100A380083120313881508000B1D232D242D2B2D3D
:100A48000B110A128A11B8250A128A112B2D83124A
:100A580003130C1C302D312D382D0C100A128A115D
:100A680091250A128A11382D831203138C1C3D2DEF
:100A78003E2D452D8C100A128A11DA250A128A1188
:100A8800452D71088A00700E8300FE0E7E0E090047
:100A980005308A000408840A820700343034303470
:100AA8003A34303430342034203420342034203464
:100AB8002034303430343A34303430340034F200B6
:100AC8007208840083138001720A8400800172080E
:100AD800023E840080017208033E8400800172088F
:100AE800043E84008001840A80010800892DC730F3
:100AF800F4007E2DF40B7D2D812D822D0130F20224
:100B08000030031CF303F302892D72087304031DDC
:100B18008E2D8F2D7B2D902D0800FC308312031312
:100B28008F0018308E002208230403199C2D9D2D58
:100B3800A42D0130A2020030031CA303A302A42D9C
:100B48000800F7007708F60006300310F60DFF3EA0
:100B5800031DA92D750876077F39803E0A128A1170
:100B68000F230A128A11080006308312031381002A
:100B7800240825040319C12DC22DC92D0130A40252
:100B88000030031CA503A502C92D08008B1383168A
:100B9800031381110108F8390138810081120630E8
:100BA8008312031381008B128B170800831203131F
:100BB800200821040319E12DE22DE92D0130A002BE
:100BC8000030031CA103A102E92D0800063083129E
:100BD800031381007308A5007208A4008B1608008F
:100BE800F5007308F4007508840074088313800006
:100BF800080083120313050CF200F20C720C013981
:100C0800052E080064008001840A040603190034D4
:100C18000406072E83120313050CF200720C013927
:100C2800152E0800831203132508F3002408F20088
:100C38001D2E080083160313051485140515851544
:100C4800080083120313050C01392A2E08008312A9
:0A0C5800031305080139302E0800CF
:04400E00D4E0FFFFFC
:00000001FF
