:020000040000FA
:060000000A128A110C280F
:10000800FE00030EF0000A08F1000A128A11A72B5D
:100018000A128A110F28FA01FB0183120313B40193
:10002800B501B601B701B801B90183010A128A11F5
:100038000B2983120313AB00A61B232825280130A4
:1000480026280030A8002808AD002D0803192D28FF
:100058002E283428A509A609A50A0319A60A3428B2
:100068002408A8002808F5002B080A128A1123245E
:100078000A128A11103083120313AE002730AF0022
:100088000530A8002808AC007828831203132F082D
:10009800F3002E08F2002608F5002508F4000A12DD
:1000A8008A1125220A128A1172087304031D5D2819
:1000B8005E289228013083120313AC026428922828
:1000C8000A30F2000030F3002F08F5002E08F40083
:1000D8000A128A1125220A128A117308831203133D
:1000E800AF007208AE0078282F08803AFF008030F1
:1000F8007F02031D812801302E02031884288528D9
:1001080049289228922820300A128A1171230A124B
:100118008A11013083120313A70292288312031352
:100128002C082D07A800A901A90D2908803AAA00C2
:1001380080302A02031DA228270828020318A528B0
:10014800A628B02802308312031327020318AD280B
:10015800AE288728B028B028831203132D08031966
:10016800B628B728BE282D300A128A1171230A1220
:100178008A11BE28831203132F08F3002E08F200F9
:100188002608F5002508F4000A128A1125220A1209
:100198008A117208303E0A128A1171230A128A11D2
:1001A800831203132F08F3002E08F2002608F50027
:1001B8002508F4000A128A1198220A128A11730873
:1001C80083120313A6007208A5000A30F20000305B
:1001D800F3002F08F5002E08F4000A128A112522D0
:1001E8000A128A11730883120313AF007208AE0053
:1001F8002F08803AFF0080307F02031D0529013057
:100208002E02031808290929BE280A2908000A12FB
:100218008A11FB220A128A110A128A1148240A1228
:100228008A11F801123083120313B0003008F90064
:1002380000300A128A113A230A128A11E830F200B1
:100248000330F3000A128A1168240A128A112C2931
:100258000A128A1172240A128A1172087304031D81
:10026800362937296729E830F2000330F3000A12EB
:100278008A1168240A128A113C30F2000030F30017
:10028800013083120313B0003008FA077A08B1006E
:10029800B2013108F4003208F5000A128A119822D6
:1002A8000A128A11720883120313B3003308FA0082
:1002B8007A08031D6029612967290130B0003008D8
:1002C800FB0767296729073083120313B00030083A
:1002D800A4007B08B100B2013108A5003208A600CD
:1002E8000230B3003308A70000300A128A111D201B
:1002F8000A128A110A3083120313B0003008A400CE
:100308007A08B100B2013108A5003208A60002300F
:10031800B3003308A70000300A128A111D200A1200
:100328008A112C292C290A128A110C28F40083120C
:10033800031308117408F20004300310F20CFF3E96
:10034800031DA1297208F30004300310F30DFF3ECA
:10035800031DA92908080F3973048800881174033C
:100368000319B729B829BF2902307406031DBD290E
:10037800BE29C929BF290330F3009730F200F20BD8
:10038800C329F30BC329C829CE290D30F200F20B7B
:10039800CB29CE29831203138815F0307405F20097
:1003A80020307206031DD929DA29F82908117408A2
:1003B800F20004300310F20CFF3E031DDE29720820
:1003C800F30004300310F30DFF3E031DE62908086F
:1003D8000F397304880088110D30F200F20BF229EE
:1003E800831203138815F82908117408F2000430E1
:1003F8000310F20DFF3E031DFC2908080F39720493
:1004080088008811740303190A2A0B2A122A023059
:100418007406031D102A112A1C2A122A0330F3001D
:100428009730F200F20B162AF30B162A1B2A212A00
:100438000D30F200F20B1E2A212A831203138815AD
:10044800080083120313A101F31F2B2A2C2A342A34
:10045800F209F309F20A0319F30AA101A10A342ADD
:10046800F51F372A382A422AF409F509F40A03192C
:10047800F50A0130F6007608A106422AA201A30176
:10048800720873040319492A4A2A872AA001A00A74
:10049800592A01300310F20DF30DFF3E031D4E2AB9
:1004A8000130F6007608A007592AF31F5C2A5D2A56
:1004B8004D2A5F2A5F2A01300310A20DA30DFF3ECB
:1004C800031D602A73087502031D6C2A72087402E2
:1004D800031C6F2A702A782A7208F4027308031C16
:1004E800F503F5022214782A01300310F30CF20CFC
:1004F800FF3E031D792A0130A002031D842A852AA4
:100508005F2A872A872A210803198B2A8C2A922A8C
:10051800A209A309A20A0319A30A922A2308F3002D
:100528002208F200972A0800F801F51F9C2A9D2A44
:10053800A52AF409F509F40A0319F50AF801F80AD5
:10054800A52AF31FA82AA92AAF2AF209F309F20A51
:100558000319F30AAF2A720873040319B42AB52AD7
:10056800EA2AF701F70AC42A01300310F20DF30D45
:10057800FF3E031DB92A0130F6007608F707C42AA2
:10058800F31FC72AC82AB82ACA2ACA2A73087502B2
:10059800031DD02A72087402031CD32AD42ADB2A2A
:1005A8007208F4027308031CF503F502DB2A013014
:1005B8000310F30CF20CFF3E031DDC2A0130F70296
:1005C800031DE72AE82ACA2AEA2AEA2A7808031928
:1005D800EE2AEF2AF52AF409F509F40A0319F50AAF
:1005E800F52A7508F3007408F200FA2A0800643046
:1005F800F2000030F3000A128A11F8230A128A1155
:100608008316031308118811081288120813881317
:100618006430F2000030F3000A128A11F8230A123B
:100628008A1183120313881528300A128A119A2115
:100638000A128A110C300A128A119A210A128A1196
:1006480001300A128A119A210A128A1102300A12FA
:100658008A119A210A128A116430F2000030F300DC
:100668000A128A11F8230A128A1108008312031346
:10067800A2007808A0002008A1007808A00020089F
:10068800F50022080A128A1123240A128A11632B00
:10069800790884000A128A11D3230A128A110A12CD
:1006A8008A1171230A128A11013083120313A000E0
:1006B8002008F9070130A0002008A107632B79085A
:1006C80084000A128A11D3230A128A11003A031DE0
:1006D8006E2B6F2B4C2B702B0800F4008312031326
:1006E80008157408F20004300310F20CFF3E031DD5
:1006F800782B7208F30004300310F30DFF3E031D3E
:10070800802B08080F397304880088110D30F20017
:10071800F20B8C2B83120313881508157408F2004A
:1007280004300310F20DFF3E031D952B08080F3906
:100738007204880088110D30F200F20BA12B83128D
:100748000313881508000B1DAA2BAB2BB22B0B111A
:100758000A128A1136240A128A11B22B8312031341
:100768000C1CB72BB82BBF2B0C100A128A110F24A4
:100778000A128A11BF2B831203138C1CC42BC52B9E
:10078800CC2B8C100A128A1158240A128A11CC2BED
:1007980071088A00700E8300FE0E7E0E0900033079
:1007A8008A000408840A8207003420345434303420
:1007B800203420342034203454343134203420344C
:1007C80020342034543432342034003454346534E2
:1007D8006D3470346F343A342034203420343A3451
:1007E8002034203420340034072CC730F400FC2B8C
:1007F800F40BFB2BFF2B002C0130F2020030031C02
:10080800F303F302072C72087304031D0C2C0D2C40
:10081800F92B0E2C0800FC30831203138F001830BC
:100828008E003608370403191A2C1B2C222C013091
:10083800B6020030031CB703B702222C0800F700E9
:100848007708F60006300310F60DFF3E031D272C2F
:10085800750876077F39803E0A128A119A210A1292
:100868008A110800063083120313810038083904FE
:1008780003193F2C402C472C0130B8020030031CD0
:10088800B903B902472C08008B138316031381118F
:100898000108F839013881008112063083120313E8
:1008A80081008B128B170800831203133408350458
:1008B80003195F2C602C672C0130B4020030031C34
:1008C800B503B502672C08000630831203138100B4
:1008D8007308B9007208B8008B1608008312031356
:0C08E8003908F3003808F200792C0800F1
:04400E00D4E0FFFFFC
:00000001FF
