:020000040000FA
:060000000A128A110C280F
:10000800FE00030EF0000A08F1000A128A11292DD9
:100018000A128A110F280A128A117D260A128A11D9
:10002800F9000A128A117E260A128A11FA0083132D
:10003800203084003F300A128A1166260A128A117B
:10004800FB0183010A128A1129280130831603173C
:1000580088000A128A1183240A128A110A128A1144
:10006800FC250A128A110A128A1176260A128A11A6
:1000780083120313BF011130CF004F08C0000030B6
:100088000A128A11C2240A128A1183120313BF01A9
:100098001130CF004F08C00001300A128A11C22463
:1000A8000A128A11E830F2000330F3000A128A11AA
:1000B80053260A128A1127300A128A1195250A1224
:1000C8008A112D300A128A1195250A128A113330A5
:1000D8000A128A1195250A128A1139300A128A11D0
:1000E80095250A128A1100300A128A111C260A1252
:1000F8008A1183120313CF004F08A90083280A121C
:100108008A1149260A128A1183120313CF004F0855
:10011800F20027300A128A115D260A128A110A1281
:100128008A113F260A128A1183120313CF004F083F
:10013800F2002D300A128A115D260A128A110A125B
:100148008A1135260A128A1183120313CF004F0829
:10015800F20033300A128A115D260A128A110A1235
:100168008A112B260A128A1183120313CF004F0813
:10017800F20039300A128A115D260A128A110A120F
:100188008A116E260A128A1172087304031DCD287B
:10019800CE288328E830F2000330F3000A128A11CF
:1001A80053260A128A1127300A128A11A1220A122A
:1001B8008A112D300A128A11A1220A128A113330AB
:1001C8000A128A11A1220A128A1139300A128A11D6
:1001D800A1220A128A1183120313C3012A08CF002D
:1001E800D0014F08C4005008C5000230D1005108A2
:1001F800C60000300A128A11B3210A128A1103308C
:1002080083120313CF004F08C3002908D000D1017F
:100218005008C4005108C5000230D2005208C60078
:1002280000300A128A11B3210A128A1183120313A9
:100238002908CF004F08F20000300A128A117C25E5
:100248000A128A110B3083120313CF004F08C30020
:100258002F08D000D1015008C4005108C500023051
:10026800D2005208C60000300A128A11B3210A12BD
:100278008A110E3083120313CF004F08C3002E08D3
:10028800D000D1015008C4005108C5000230D20086
:100298005208C60000300A128A11B3210A128A11C4
:1002A80083120313C3013508CF00D0014F08C400DF
:1002B8005008C5000230D1005108C60001300A12AA
:1002C8008A11B3210A128A11033083120313CF0053
:1002D8004F08C3003408D000D1015008C4005108A9
:1002E800C5000230D2005208C60001300A128A1135
:1002F800B3210A128A110B3083120313CF004F085F
:10030800C3003B08D000D1015008C4005108C50003
:100318000230D2005208C60001300A128A11B321F5
:100328000A128A110E3083120313CF004F08C3003C
:100338003A08D000D1015008C4005108C500023065
:10034800D2005208C60001300A128A11B3210A12DB
:100358008A118328832883280A128A110C28831279
:100368000313CA00C51BB929BB290130BC290030B9
:10037800C7004708CC004C080319C329C429CA2957
:10038800C409C509C40A0319C50ACA294308C7000C
:100398004708F5004A080A128A11D7250A128A1155
:1003A800103083120313CD002730CE000530C7006C
:1003B8004708CB000E2A831203134E08F3004D089A
:1003C800F2004508F5004408F4000A128A11AD232A
:1003D8000A128A1172087304031DF329F429282AC2
:1003E800013083120313CB02FA29282A0A30F200BB
:1003F8000030F3004E08F5004D08F4000A128A1187
:10040800AD230A128A11730883120313CE007208EF
:10041800CD000E2A4E08803AFF0080307F02031D6F
:10042800172A01304D0203181A2A1B2ADF29282A05
:10043800282A30300A128A11FD240A128A11013042
:1004480083120313C602282A831203134B084C078E
:10045800C700C801C80D4808803AC9008030490261
:10046800031D382A4608470203183B2A3C2A462A15
:1004780002308312031346020318432A442A1D2A12
:10048800462A462A831203134C0803194C2A4D2A7C
:10049800542A2D300A128A11FD240A128A11542A6C
:1004A800831203134E08F3004D08F2004508F500C7
:1004B8004408F4000A128A11AD230A128A1172083C
:1004C800303E0A128A11FD240A128A11831203137C
:1004D8004E08F3004D08F2004508F5004408F40002
:1004E8000A128A1120240A128A117308831203132C
:1004F800C5007208C4000A30F2000030F3004E084C
:10050800F5004D08F4000A128A11AD230A128A1167
:10051800730883120313CE007208CD004E08803A88
:10052800FF0080307F02031D9B2A01304D02031813
:100538009E2A9F2A542AA02A080083120313C30064
:1005480043088400831300080319AB2AAC2A302B14
:100558003C30F2000030F3000130BF00430A840051
:100568003F0880070008C000C1014008F4004108A6
:10057800F5000A128A1120240A128A1172088312BD
:100588000313C200430A8400420883138000430A0D
:1005980084000008031DD12AD22A302B3C30F200F7
:1005A8000030F3000130BF004308023E84003F08DA
:1005B80080070008C000C1014008F4004108F500A8
:1005C8000A128A1120240A128A117208831203134C
:1005D800C2004308023E8400420883138000430897
:1005E800023E84000008031DFA2AFB2A302B18302B
:1005F800F2000030F3000130BF004308033E8400DE
:100608003F0880070008C000C1014008F400410805
:10061800F5000A128A1120240A128A11720883121C
:100628000313C2004308033E84004208831380007A
:100638004308033E84000008031D232B242B302B82
:100648004308043E840001308007840A0318800AA6
:10065800302B302B302B302B0800F400831203137F
:1006680008127408F20004300310F20CFF3E031D58
:10067800382B0F307205F3000808F039730488002E
:10068800881274030319492B4A2B512B0230740624
:10069800031D4F2B502B5B2B512B0330F30097304E
:1006A800F200F20B552BF30B552B5A2B602B0D3008
:1006B800F200F20B5D2B602B831203138816F030C7
:1006C8007405F20020307206031D6B2B6C2B852BF2
:1006D80008127408F20004300310F20CFF3E031DE8
:1006E800702B0F307205F3000808F0397304880086
:1006F80088120D30F200F20B7F2B83120313881639
:10070800852B08120F307405F2000808F0397204BE
:100718008800881274030319922B932B9A2B0230AA
:100728007406031D982B992BA42B9A2B0330F300E6
:100738009730F200F20B9E2BF30B9E2BA32BA92BC9
:100748000D30F200F20BA62BA92B83120313881687
:10075800080083120313C001F31FB32BB42BBC2B67
:10076800F209F309F20A0319F30AC001C00ABC2B03
:10077800F51FBF2BC02BCA2BF409F509F40A03197E
:10078800F50A0130F6007608C006CA2BC101C2017D
:10079800720873040319D12BD22B0F2CBF01BF0A87
:1007A800E12B01300310F20DF30DFF3E031DD62B94
:1007B8000130F6007608BF07E12BF31FE42BE52B89
:1007C800D52BE72BE72B01300310C10DC20DFF3EDF
:1007D800031DE82B73087502031DF42B72087402BD
:1007E800031CF72BF82B002C7208F4027308031C67
:1007F800F503F5024114002C01300310F30CF20C40
:10080800FF3E031D012C0130BF02031D0C2C0D2CD3
:10081800E72B0F2C0F2C40080319132C142C1A2C1F
:10082800C109C209C10A0319C20A1A2C4208F300F5
:100838004108F2001F2C0800F801F51F242C252C74
:100848002D2CF409F509F40A0319F50AF801F80A38
:100858002D2CF31F302C312C372CF209F309F20A16
:100868000319F30A372C7208730403193C2C3D2C26
:10087800722CF701F70A4C2C01300310F20DF30D1E
:10088800FF3E031D412C0130F6007608F7074C2C7B
:10089800F31F4F2C502C402C522C522C73087502ED
:1008A800031D582C72087402031C5B2C5C2C632CEF
:1008B8007208F4027308031CF503F502632C013077
:1008C8000310F30CF20CFF3E031D642C0130F702F9
:1008D800031D6F2C702C522C722C722C7808031963
:1008E800762C772C7D2CF409F509F40A0319F50AFE
:1008F8007D2C7508F3007408F200822C080064301F
:10090800F2000030F3000A128A11AC250A128A118B
:10091800831603130812881208108810081188110A
:100928006430F2000030F3000A128A11AC250A1272
:100938008A1183120313881628300A128A11312368
:100948000A128A110C300A128A1131230A128A11EA
:1009580001300A128A1131230A128A1102300A124E
:100968008A1131230A128A116430F2000030F30030
:100978000A128A11AC250A128A110800831203137D
:10098800C2003F08F8007808C1003F08F80078085E
:10099800F50042080A128A11D7250A128A11ED2C8D
:1009A80083120313400884000A128A1155250A127B
:1009B8008A110A128A11FD240A128A110130F800DC
:1009C800780883120313C0070130F8007808C107BC
:1009D800ED2C83120313400884000A128A1155254E
:1009E8000A128A11003A031DFA2CFB2CD42CFC2C79
:1009F8000800F4008312031308167408F200043088
:100A08000310F20CFF3E031D042D0F307205F30096
:100A18000808F0397304880088120D30F200F20BD0
:100A2800132D83120313881608160F307405F2006D
:100A38000808F0397204880088120D30F200F20BB1
:100A4800232D83120313881608000B1D2C2D2D2D22
:100A5800342D0B110A128A11EA250A128A11342D33
:100A6800831203130C1C392D3A2D412D0C100A1238
:100A78008A11C3250A128A11412D831203138C1C73
:100A8800462D472D4E2D8C100A128A110C260A125B
:100A98008A114E2D71088A00700E8300FE0E7E0E9C
:100AA800090005308A000408840A820700343134BA
:100AB80032343334413434343534363442343734D0
:100AC8003834393443345E3476343C343E3430344C
:100AD80030343A3430343034203420342034203424
:100AE80020342034303430343A3430343034003424
:100AF800F3008B137308831203178D0072088C00A0
:100B0800831603178C130C1555308D00AA308D00F1
:100B18008C148E2D8C18912D922D8E2D0C118B17D7
:100B28000800F2007208840083138001720A8400AE
:100B380080017208023E840080017208033E84002E
:100B480080017208043E84008001840A8001080044
:100B5800BB2DC730F400B02DF40BAF2DB32DB42D41
:100B68000130F2020030031CF303F302BB2D7208BC
:100B78007304031DC02DC12DAD2DC22D0800FC30FE
:100B8800831203138F0018308E00220823040319E0
:100B9800CE2DCF2DD62D0130A2020030031CA30389
:100BA800A302D62D0800F7007708F60006300310D8
:100BB800F60DFF3E031DDB2D750876077F39803E55
:100BC8000A128A1131230A128A1108000630831288
:100BD80003138100240825040319F32DF42DFB2D9C
:100BE8000130A4020030031CA503A502FB2D080058
:100BF8008B138316031381110108F839013881001A
:100C0800811206308312031381008B128B170800A0
:100C180083120313200821040319132E142E1B2EEC
:100C28000130A0020030031CA103A1021B2E080002
:100C3800F200831203178F0172088D0083160317C1
:100C48008C130C14831203170C082A2E08000310A7
:100C580083120313851D0314003003180130342E4A
:100C68000800031083120313051D03140030031832
:100C780001303E2E0800031083120313851C031451
:100C8800003003180130482E0800031083120313A4
:100C9800051C0314003003180130522E08000630DA
:100CA8008312031381007308A5007208A4008B1631
:100CB8000800F4007208F3007408840073088313B2
:100CC8008000080064008001840A040603190034C7
:100CD8000406672E831203132508F3002408F20084
:100CE800752E08008316031305148514051585153C
:060CF80008000134013484
:04400E00D4E0FFFFFC
:00000001FF
