:020000040000FA
:060000000A128A110C280F
:10000800FE00030EF0000A08F1000A128A11182FE8
:100018000A128A110F280A128A157A270A128A11D7
:10002800FA000A128A157B270A128A11FB00831329
:100038002030840040300A128A158B270A128A1150
:1000480083010A128A1128288316031788010A12C5
:100058008A1176260A128A110A128A15DE270A12CE
:100068008A110A128A157C270A128A110A128A1121
:10007800B6270A128A11F801113083120313D0002F
:100088005008F90000300A128A11B5260A128A119E
:10009800F801113083120313D0005008F900013021
:1000A8000A128A11B5260A128A11E830F2000330C2
:1000B800F3000A128A159C270A128A1128300A129C
:1000C8008A1188270A128A112E300A128A11882763
:1000D8000A128A1134300A128A1188270A128A11E0
:1000E8003A300A128A1188270A128A1183120313D6
:1000F800D40140305402031C822883288528A22872
:10010800A228F70154080A128A116F270A128A11C5
:100118006430F2000030F3000A128A119F270A1295
:100128008A11013083120313D0005008D4074030DD
:100138005402031CA028A1288528A228F701003012
:100148000A128A116F270A128A1100300A128A11BC
:10015800F1270A128A1183120313D0005008AA004B
:1001680001300A128A11F1270A128A118312031325
:10017800D0005008AB0002300A128A11F1270A1287
:100188008A1183120313D000D1015008AC00510822
:10019800AD000A300A128A11F1270A128A11831255
:1001A8000313D0005008B0000C300A128A11F1274E
:1001B8000A128A1183120313D000D1015008B20029
:1001C8005108B30014300A128A11F1270A128A1151
:1001D80083120313D0005008B60015300A128A1192
:1001E800F1270A128A1183120313D0005008B700AE
:1001F80016300A128A11F1270A128A118312031380
:10020800D000D1015008B8005108B9001E300A12B8
:100218008A11F1270A128A1183120313D000500899
:10022800BC001F300A128A11F1270A128A118312A0
:100238000313D0005008BD0020300A128A11F1279C
:100248000A128A1183120313D000D1015008BE008C
:100258005108BF002F290A128A15A6270A128A11E7
:1002680083120313D0005008F20028300A128A15AE
:1002780093270A128A110A128A15B0270A128A11BC
:1002880083120313D0005008F2002E300A128A1588
:1002980093270A128A110A128A15BA270A128A1192
:1002A80083120313D0005008F20034300A128A1562
:1002B80093270A128A110A128A15C4270A128A1168
:1002C80083120313D0005008F2003A300A128A153C
:1002D80093270A128A110A128A1583270A128A1189
:1002E80072087304031D79297A292F29E830F2004E
:1002F8000330F3000A128A159C270A128A11831206
:100308000313C40128300A128A1146240A128A11DA
:100318000A3083120313D0005008C4002E300A128A
:100328008A1146240A128A11143083120313D0004A
:100338005008C40034300A128A1146240A128A115D
:100348001E3083120313D0005008C4003A300A123A
:100358008A1146240A128A11023083120313D0002C
:100368005008F8002430D1005108F90000300A1272
:100378008A11B5260A128A11053083120313D00098
:100388005008F8002230D1005108F90000300A1254
:100398008A11B5260A128A110D3083120313D00070
:1003A8005008F8002430D1005108F90000300A1232
:1003B8008A11B5260A128A11023083120313D0005B
:1003C8005008F8002430D1005108F90001300A1211
:1003D8008A11B5260A128A11053083120313D00038
:1003E8005008F8002230D1005108F90001300A12F3
:1003F8008A11B5260A128A110D3083120313D00010
:100408005008F8002430D1005108F90001300A12D0
:100418008A11B5260A128A1183120313C4012A0805
:10042800D000D1015008C5005108C6000230D200E2
:100438005208C70000300A128A1158230A128A117A
:10044800033083120313D0005008C4002908D100D8
:10045800D2015108C5005208C6000230D300530823
:10046800C70000300A128A1158230A128A1183120F
:1004780003132A08D0005008F70000300A128A1126
:100488006F270A128A11831203132B08D000500811
:10049800F70001300A128A116F270A128A11831293
:1004A80003132C08D0005008F70002300A128A11F2
:1004B8006F270A128A110B3083120313D0005008D9
:1004C800C4003008D100D2015108C5005208C60046
:1004D8000230D3005308C70000300A128A1158238B
:1004E8000A128A110E3083120313D0005008C40078
:1004F8002F08D100D2015108C5005208C6000230A9
:10050800D3005308C70000300A128A1158230A1270
:100518008A11831203133008D0005008F7000A30FC
:100528000A128A116F270A128A11831203133108DB
:10053800D0005008F7000B300A128A116F270A12F0
:100548008A11831203133208D0005008F7000C30C8
:100558000A128A116F270A128A1183120313C4011F
:100568003708D000D1015008C5005108C600023034
:10057800D2005208C70001300A128A1158230A1201
:100588008A11033083120313D0005008C4003608C0
:10059800D100D2015108C5005208C6000230D3006C
:1005A8005308C70001300A128A1158230A128A1107
:1005B800831203133608D0005008F70014300A12CB
:1005C8008A116F270A128A11831203133708D00081
:1005D8005008F70015300A128A116F270A128A117B
:1005E800831203133808D0005008F70016300A1297
:1005F8008A116F270A128A110B3083120313D00055
:100608005008C4003D08D100D2015108C500520865
:10061800C6000230D3005308C70001300A128A11FD
:1006280058230A128A110E3083120313D00050087F
:10063800C4003C08D100D2015108C5005208C600C8
:100648000230D3005308C70001300A128A11582318
:100658000A128A11831203133C08D0005008F700CD
:100668001E300A128A116F270A128A118312031385
:100678003708D0005008F7001F300A128A116F2778
:100688000A128A11831203133808D0005008F700A1
:1006980020300A128A116F270A128A112F292F294E
:1006A8002F290A128A110C2883120313CB00C61BA8
:1006B8005E2B602B0130612B0030C8004808CD004C
:1006C8004D080319682B692B6F2BC509C609C50A84
:1006D8000319C60A6F2B4408C8004808F5004B08E0
:1006E8000A128A11DE270A128A11103083120313A4
:1006F800CE002730CF000530C8004808CC00B32B07
:10070800831203134F08F3004E08F2004608F50061
:100718004508F4000A128A11A0250A128A117208E3
:100728007304031D982B992BCD2B013083120313CF
:10073800CC029F2BCD2B0A30F2000030F3004F087B
:10074800F5004E08F4000A128A11A0250A128A112F
:10075800730883120313CF007208CE00B32B4F081F
:10076800803AFF0080307F02031DBC2B01304E020F
:100778000318BF2BC02B842BCD2BCD2B30300A1266
:100788008A11EC260A128A11013083120313C70258
:10079800CD2B831203134C084D07C800C901C90D9E
:1007A8004908803ACA0080304A02031DDD2B4708F9
:1007B80048020318E02BE12BEB2B023083120313C2
:1007C80047020318E82BE92BC22BEB2BEB2B8312E8
:1007D80003134D080319F12BF22BF92B2D300A12B4
:1007E8008A11EC260A128A11F92B831203134F0877
:1007F800F3004E08F2004608F5004508F4000A1216
:100808008A11A0250A128A117208303E0A128A112A
:10081800EC260A128A11831203134F08F3004E08BC
:10082800F2004608F5004508F4000A128A1113265A
:100838000A128A11730883120313C6007208C500CE
:100848000A30F2000030F3004F08F5004E08F400BB
:100858000A128A11A0250A128A1173088312031337
:10086800CF007208CE004F08803AFF0080307F0228
:10087800031D402C01304E020318432C442CF92B45
:10088800452C0800F900790884008313000803192F
:100898004E2C4F2C232D3C30F2000030F300013059
:1008A80083120313C500790A8400450880070008ED
:1008B800C600C7014608F4004708F5000A128A1165
:1008C80013260A128A11720883120313C800790AC0
:1008D8008400480883138000790A84000008031DF7
:1008E800762C772C232D3C30F2000030F3000130B9
:1008F800C5007908023E8400450880070008C60044
:10090800C7014608F4004708F5000A128A111326A1
:100918000A128A11720883120313C8007908023E6A
:1009280084004808831380007908023E8400000888
:10093800C5004508F70044080A128A116F270A12F1
:100948008A117908023E840083130008031DAD2C28
:10095800AE2C232D1830F2000030F3000130831242
:100968000313C5007908033E840045088007000882
:10097800C600C7014608F4004708F5000A128A11A4
:1009880013260A128A11720883120313C800790801
:10099800033E84004808831380007908033E8400DE
:1009A8000008C5004508F7004408013E0A128A11EC
:1009B8006F270A128A117908033E840083130008FE
:1009C800031DE72CE82C232D7908043E8400013010
:1009D8008007840A0318800A7908043E8400000806
:1009E80083120313C5004508F7004408023E0A12A3
:1009F8008A116F270A128A110030F2000130F300C1
:100A08007908043E840083130008F400840A00086F
:100A1800F5000A128A11A0250A128A117208831297
:100A28000313C5004508F7004408033E0A128A115B
:100A38006F270A128A11232D232D232D232D080019
:100A4800F4008312031308127408F2000430031030
:100A5800F20CFF3E031D2B2D0F307205F300080822
:100A6800F039730488008812740303193C2D3D2D56
:100A7800442D02307406031D422D432D4E2D442D66
:100A88000330F3009730F200F20B482DF30B482D9A
:100A98004D2D532D0D30F200F20B502D532D831296
:100AA80003138816F0307405F20020307206031D17
:100AB8005E2D5F2D782D08127408F20004300310A3
:100AC800F20CFF3E031D632D0F307205F30008087A
:100AD800F0397304880088120D30F200F20B722D81
:100AE800831203138816782D08120F307405F2004C
:100AF8000808F03972048800881274030319852DD8
:100B0800862D8D2D02307406031D8B2D8C2D972D6F
:100B18008D2D0330F3009730F200F20B912DF30B7B
:100B2800912D962D9C2D0D30F200F20B992D9C2DB8
:100B3800831203138816080083120313C101F31FDD
:100B4800A62DA72DAF2DF209F309F20A0319F30A0E
:100B5800C101C10AAF2DF51FB22DB32DBD2DF4096A
:100B6800F509F40A0319F50A0130F6007608C106FA
:100B7800BD2DC201C301720873040319C42DC52D0C
:100B8800022EC001C00AD42D01300310F20DF30D5E
:100B9800FF3E031DC92D0130F6007608C007D42D8D
:100BA800F31FD72DD82DC82DDA2DDA2D01300310DB
:100BB800C20DC30DFF3E031DDB2D73087502031D17
:100BC800E72D72087402031CEA2DEB2DF32D720831
:100BD800F4027308031CF503F5024214F32D0130E7
:100BE8000310F30CF20CFF3E031DF42D0130C0027C
:100BF800031DFF2D002EDA2D022E022E41080319A7
:100C0800062E072E0D2EC209C309C20A0319C30AEC
:100C18000D2E4308F3004208F200122E0800F801D6
:100C2800F51F172E182E202EF409F509F40A0319BA
:100C3800F50AF801F80A202EF31F232E242E2A2E57
:100C4800F209F309F20A0319F30A2A2E7208730447
:100C580003192F2E302E652EF701F70A3F2E01308B
:100C68000310F20DF30DFF3E031D342E0130F60084
:100C78007608F7073F2EF31F422E432E332E452EBC
:100C8800452E73087502031D4B2E72087402031C4F
:100C98004E2E4F2E562E7208F4027308031CF503CD
:100CA800F502562E01300310F30CF20CFF3E031D23
:100CB800572E0130F702031D622E632E452E652E36
:100CC800652E78080319692E6A2E702EF409F50925
:100CD800F40A0319F50A702E7508F3007408F20077
:100CE800752E08006430F2000030F3000A128A11F1
:100CF8009F270A128A1183160313081288120810F4
:100D08008810081188116430F2000030F3000A12CC
:100D18008A119F270A128A11831203138816283012
:100D28000A128A1124250A128A110C300A128A1111
:100D380024250A128A1101300A128A1124250A125E
:100D48008A1102300A128A1124250A128A11643083
:100D5800F2000030F3000A128A119F270A128A1142
:100D6800080083120313C2007808C0004008C100BD
:100D78007808C0004008F50042080A128A11DE27E8
:100D88000A128A11DE2E790884000A128A11442771
:100D98000A128A110A128A11EC260A128A110130E3
:100DA80083120313C0004008F9070130C00040084F
:100DB800C107DE2E790884000A128A1144270A1214
:100DC8008A11003A031DE92EEA2EC72EEB2E0800E1
:100DD800F4008312031308167408F2000430031099
:100DE800F20CFF3E031DF32E0F307205F3000808C6
:100DF800F0397304880088120D30F200F20B022FCC
:100E080083120313881608160F307405F2000808B9
:100E1800F0397204880088120D30F200F20B122F9C
:100E280083120313881608000B1D1B2F1C2F232F5A
:100E38000B110A128A15EE270A128A11232F831220
:100E480003130C1C282F292F302F0C100A128A117B
:100E5800CA270A128A11302F831203138C1C352FCC
:100E6800362F3D2F8C100A128A15CE270A128A11A6
:100E78003D2F71088A00700E8300FE0E7E0E090059
:100E880007308A000408840A820700343134323477
:100E980033344134343435343634423437343834E6
:100EA800393443342A3430342334443430343034FD
:100EB8003A34303430342034203420342034203450
:100EC8002034303430343A34303430340034203440
:100ED80000343A340034F8008B137808831203176F
:100EE8008D0077088C00831603178C130C1555306A
:100EF8008D00AA308D008C14812F8C18842F852F9B
:100F0800812F0C118B170800F200720884008313DC
:100F18008001720A840080017208023E8400800108
:100F28007208033E840080017208043E8400800138
:100F3800840A80010800AE2FC730F400A32FF40BF9
:100F4800A22FA62FA72F0130F2020030031CF303B3
:100F5800F302AE2F72087304031DB32FB42FA02F12
:100F6800B52F0800831603178901F0308316031381
:100F780086008113F0309500FF308312031386003A
:100F88000A128A157C270A128A110800FC3083127B
:100F980003138F0018308E00220823040319D52F5D
:100FA800D62FDD2F0130A2020030031CA303A302B9
:100FB800DD2F0800F7007708F60006300310F60D5D
:100FC800FF3E031DE22F750876077F39803E0A121F
:100FD8008A1124250A128A110800F20083120317C5
:100FE8008F0172088D00831603178C130C1483125B
:080FF80003170C08FF2F08008D
:101EF400013401348316031305148514051585155F
:101F04000800831203132508F3002408F2008A2F23
:101F1400080064008001840A0406031900340406DE
:101F24008C2FF4007208F300740884007308831380
:101F34008000080006308312031381007308A50093
:101F44007208A4008B160800031083120313051CE7
:101F54000314003003180130AF2F0800031083125C
:101F64000313851C0314003003180130B92F080033
:101F7400031083120313051D0314003003180130EA
:101F8400C32F0800031083120313851D03140030AC
:101F940003180130CD2F08008312031320082104F5
:101FA4000319D52FD62FDD2F0130A0020030031CDA
:101FB400A103A102DD2F08008B13831603138111E3
:101FC4000108F839013881008112063083120313A5
:101FD40081008B128B1708000630831203138100D3
:101FE400240825040319F72FF82FFF2F0130A4022A
:0C1FF4000030031CA503A502FF2F08000D
:04400E00D4E0FFFFFC
:00000001FF
