:020000040000FA
:060000000A128A110C280F
:10000800FE00030EF0000A08F1000A128A11272CDC
:100018000A128A110F28FA01FB0183120313B40193
:10002800B501B601B701B801B901BA01BB01BC01FC
:10003800BD0183010A128A110F2983120313AB0031
:10004800A61B2728292801302A280030A8002808BC
:10005800AD002D080319312832283828A509A6092A
:10006800A50A0319A60A38282408A8002808F500B4
:100078002B080A128A1191240A128A11103083124D
:100088000313AE002730AF000530A8002808AC00E5
:100098007C28831203132F08F3002E08F200260889
:1000A800F5002508F4000A128A11A5220A128A11FD
:1000B80072087304031D6128622896280130831290
:1000C8000313AC02682896280A30F2000030F300C7
:1000D8002F08F5002E08F4000A128A11A5220A1228
:1000E8008A11730883120313AF007208AE007C28CC
:1000F8002F08803AFF0080307F02031D85280130D9
:100108002E020318882889284D28962896282030FA
:100118000A128A11F1230A128A1101308312031379
:10012800A7029628831203132C082D07A800A901FB
:10013800A90D2908803AAA0080302A02031DA628A2
:10014800270828020318A928AA28B42802308312ED
:10015800031327020318B128B2288B28B428B4281F
:10016800831203132D080319BA28BB28C2282D307F
:100178000A128A11F1230A128A11C2288312031360
:100188002F08F3002E08F2002608F5002508F400D1
:100198000A128A11A5220A128A117208303E0A121E
:1001A8008A11F1230A128A11831203132F08F3000C
:1001B8002E08F2002608F5002508F4000A128A1114
:1001C80018230A128A11730883120313A6007208EF
:1001D800A5000A30F2000030F3002F08F5002E08C1
:1001E800F4000A128A11A5220A128A1173088312CE
:1001F8000313AF007208AE002F08803AFF0080306A
:100208007F02031D092901302E0203180C290D292C
:10021800C2280E2908000A128A117B230A128A11A1
:100228000A128A11B6240A128A110A128A11EE24B5
:100238000A128A11F801013083120313B000300842
:10024800F90000300A128A11BA230A128A11E8301A
:10025800F2000330F3000A128A11D6240A128A1116
:1002680035290A128A11E8240A128A11003A031958
:100278003E293F2945290A128A11F3240A128A11B4
:100288004B290A128A11F5240A128A114B290A12DB
:100298008A1125220A128A11033083120313B0002F
:1002A8003008A4003D08B100B2013108A5003208A9
:1002B800A6000230B3003308A70000300A128A11E2
:1002C80021200A128A11063083120313B000300865
:1002D800A4003C08B100B2013108A5003208A6000C
:1002E8000230B3003308A70000300A128A11212017
:1002F8000A128A11093083120313B0003008A400CF
:100308003B08B100B2013108A5003208A60002304E
:10031800B3003308A70000300A128A1121200A12FC
:100328008A11352935290A128A110C28F4008312FA
:10033800031308117408F20004300310F20CFF3E96
:10034800031DA1297208F30004300310F30DFF3ECA
:10035800031DA92908080F3973048800881174033C
:100368000319B729B829BF2902307406031DBD290E
:10037800BE29C929BF290330F3009730F200F20BD8
:10038800C329F30BC329C829CE290D30F200F20B7B
:10039800CB29CE29831203138815F0307405F20097
:1003A80020307206031DD929DA29F82908117408A2
:1003B800F20004300310F20CFF3E031DDE29720820
:1003C800F30004300310F30DFF3E031DE62908086F
:1003D8000F397304880088110D30F200F20BF229EE
:1003E800831203138815F82908117408F2000430E1
:1003F8000310F20DFF3E031DFC2908080F39720493
:1004080088008811740303190A2A0B2A122A023059
:100418007406031D102A112A1C2A122A0330F3001D
:100428009730F200F20B162AF30B162A1B2A212A00
:100438000D30F200F20B1E2A212A831203138815AD
:1004480008000A128A11E0240A128A117208730439
:10045800031D2F2A302AA42AE830F2000330F300C3
:100468000A128A11D6240A128A113C30F20000308E
:10047800F300013083120313A0002008BB073B08D8
:10048800A100A2012108F4002208F5000A128A112D
:1004980018230A128A11720883120313A30023086F
:1004A800BB003B08031D592A5A2AA42A3C30F200F3
:1004B8000030F3000130A0002008BC073C08A10070
:1004C800A2012108F4002208F5000A128A11182353
:1004D8000A128A11720883120313A3002308BC00AE
:1004E8003C08031D782A792AA42A1830F200003023
:1004F800F3000130A0002008BD073D08A100A201BB
:100508002108F4002208F5000A128A1118230A1299
:100518008A11720883120313A3002308BD003D0843
:10052800031D972A982AA42A0130A0002008BA0798
:100538003A08A1002108BA00A42AA42AA42AA42AB5
:10054800080083120313A101F31FAB2AAC2AB42AB3
:10055800F209F309F20A0319F30AA101A10AB42A5C
:10056800F51FB72AB82AC22AF409F509F40A0319AB
:10057800F50A0130F6007608A106C22AA201A301F5
:10058800720873040319C92ACA2A072BA001A00AF2
:10059800D92A01300310F20DF30DFF3E031DCE2AB8
:1005A8000130F6007608A007D92AF31FDC2ADD2AD5
:1005B800CD2ADF2ADF2A01300310A20DA30DFF3E4A
:1005C800031DE02A73087502031DEC2A72087402E1
:1005D800031CEF2AF02AF82A7208F4027308031C95
:1005E800F503F5022214F82A01300310F30CF20C7B
:1005F800FF3E031DF92A0130A002031D042B052B21
:10060800DF2A072B072B210803190B2B0C2B122B86
:10061800A209A309A20A0319A30A122B2308F300AB
:100628002208F200172B0800F801F51F1C2B1D2BC0
:10063800252BF409F509F40A0319F50AF801F80A53
:10064800252BF31F282B292B2F2BF209F309F20A4C
:100658000319F30A2F2B720873040319342B352B53
:100668006A2BF701F70A442B01300310F20DF30D42
:10067800FF3E031D392B0130F6007608F707442B9F
:10068800F31F472B482B382B4A2B4A2B730875022C
:10069800031D502B72087402031C532B542B5B2B25
:1006A8007208F4027308031CF503F5025B2B013092
:1006B8000310F30CF20CFF3E031D5C2B0130F70214
:1006C800031D672B682B4A2B6A2B6A2B78080319A2
:1006D8006E2B6F2B752BF409F509F40A0319F50A2B
:1006E800752B7508F3007408F2007A2B0800643043
:1006F800F2000030F3000A128A1153240A128A11F8
:100708008316031308118811081288120813881316
:100718006430F2000030F3000A128A1153240A12DE
:100728008A1183120313881528300A128A119A2114
:100738000A128A110C300A128A119A210A128A1195
:1007480001300A128A119A210A128A1102300A12F9
:100758008A119A210A128A116430F2000030F300DB
:100768000A128A1153240A128A11080083120313E9
:10077800A2007808A0002008A1007808A00020089E
:10078800F50022080A128A1191240A128A11E32B11
:10079800790884000A128A117E240A128A110A1220
:1007A8008A11F1230A128A11013083120313A0005F
:1007B8002008F9070130A0002008A107E32B7908D9
:1007C80084000A128A117E240A128A11003A031D33
:1007D800EE2BEF2BCC2BF02B0800F4008312031325
:1007E80008157408F20004300310F20CFF3E031DD4
:1007F800F82B7208F30004300310F30DFF3E031DBD
:10080800002C08080F397304880088110D30F20095
:10081800F20B0C2C83120313881508157408F200C8
:1008280004300310F20DFF3E031D152C08080F3984
:100838007204880088110D30F200F20B212C83120B
:100848000313881508000B1D2A2C2B2C322C0B1196
:100858000A128A11A4240A128A11322C8312031351
:100868000C1C372C382C3F2C0C100A128A116A24C5
:100878000A128A113F2C831203138C1C442C452C1A
:100888004C2C8C100A128A11C6240A128A114C2C7C
:1008980071088A00700E8300FE0E7E0E0900622C1D
:1008A800C730F400572CF40B562C5A2C5B2C013013
:1008B800F2020030031CF303F302622C7208730483
:1008C800031D672C682C542C692C0800FC308312FB
:1008D80003138F0018308E00360837040319752C5F
:1008E800762C7D2C0130B6020030031CB703B7020A
:1008F8007D2C080004308A000408840A820700342A
:10090800543431343A34203420343A3420342034C6
:100918003A342034203420340034F7007708F600C5
:1009280006300310F60DFF3E031D952C750876075B
:100938007F39803E0A128A119A210A128A11080008
:100948000630831203138100380839040319AD2CCB
:10095800AE2CB52C0130B8020030031CB903B90223
:10096800B52C08008B138316031381110108F8397D
:1009780001388100811206308312031381008B1223
:100988008B17080083120313340835040319CD2C80
:10099800CE2CD52C0130B4020030031CB503B502AF
:1009A800D52C080006308312031381007308B900A0
:1009B8007208B8008B160800831203133908F30075
:1009C8003808F200E72C08008312031308080139DD
:1009D800ED2C0800831603130814881408008B16DE
:0609E80008008B1208005C
:04400E00D4E0FFFFFC
:00000001FF
