:020000040000FA
:060000000A128A110C280F
:10000800FE00030EF0000A08F1000A128A11F82C0B
:100018000A128A110F28FA01FB0183132030840089
:100028003E300A128A11D5250A128A1183010A1252
:100038008A111E280A128A114C240A128A110A12DD
:100048008A11A2250A128A110A128A11F1250A12A6
:100058008A11F801013083120313CE004E08F9000B
:1000680000300A128A118B240A128A11F801013011
:1000780083120313CE004E08F90001300A128A11C8
:100088008B240A128A11E830F2000330F3000A12B6
:100098008A11C2250A128A1126300A128A113B25B2
:1000A8000A128A112C300A128A113B250A128A1167
:1000B80032300A128A113B250A128A1138300A1284
:1000C8008A113B250A128A1169280A128A11EB251E
:1000D8000A128A1183120313CE004E08F20026304A
:1000E8000A128A11CC250A128A110A128A11E525E8
:1000F8000A128A1183120313CE004E08F2002C3024
:100108000A128A11CC250A128A110A128A11DD25CF
:100118000A128A1172087304031D93289428692807
:10012800E830F2000330F3000A128A11C2250A12DD
:100138008A1126300A128A115B220A128A112C307F
:100148000A128A115B220A128A1132300A128A11A3
:100158005B220A128A1138300A128A115B220A12AB
:100168008A1183120313C2012908CE00CF014E0859
:10017800C3004F08C4000230D0005008C50000304A
:100188000A128A116D210A128A110330831203138D
:10019800CE004E08C2002808CF00D0014F08C30087
:1001A8005008C4000230D1005108C50000300A12BE
:1001B8008A116D210A128A110B3083120313CE00A3
:1001C8004E08C2002E08CF00D0014F08C3005008C7
:1001D800C4000230D1005108C50000300A128A114B
:1001E8006D210A128A110E3083120313CE004E08B5
:1001F800C2002D08CF00D0014F08C3005008C4002A
:100208000230D1005108C50000300A128A116D2150
:100218000A128A1183120313C2013408CE00CF01D7
:100228004E08C3004F08C4000230D0005008C50073
:1002380001300A128A116D210A128A1103308312C1
:100248000313CE004E08C2003308CF00D0014F0878
:10025800C3005008C4000230D1005108C500013065
:100268000A128A116D210A128A110B3083120313A4
:10027800CE004E08C2003A08CF00D0014F08C30094
:100288005008C4000230D1005108C50001300A12DC
:100298008A116D210A128A110E3083120313CE00BF
:1002A8004E08C2003908CF00D0014F08C3005008DB
:1002B800C4000230D1005108C50001300A128A1169
:1002C8006D210A128A116928692869280A128A1177
:1002D8000C2883120313C900C41B73297529013024
:1002E80076290030C6004608CB004B0803197D2943
:1002F8007E298429C309C409C30A0319C40A8429A5
:100308004208C6004608F50049080A128A117D25E8
:100318000A128A11103083120313CC002730CD0043
:100328000530C6004608CA00C829831203134D08C1
:10033800F3004C08F2004408F5004308F4000A12E0
:100348008A1176230A128A1172087304031DAD29D3
:10035800AE29E229013083120313CA02B429E22923
:100368000A30F2000030F3004D08F5004C08F400A4
:100378000A128A1176230A128A1173088312031348
:10038800CD007208CC00C8294D08803AFF008030A3
:100398007F02031DD12901304C020318D429D52925
:1003A8009929E229E22930300A128A11C2240A1254
:1003B8008A11013083120313C502E2298312031341
:1003C8004A084B07C600C701C70D4708803AC8004E
:1003D80080304802031DF229450846020318F52912
:1003E800F629002A02308312031345020318FD2957
:1003F800FE29D729002A002A831203134B08031960
:10040800062A072A0E2A2D300A128A11C2240A1235
:100418008A110E2A831203134D08F3004C08F200C8
:100428004408F5004308F4000A128A1176230A12D8
:100438008A117208303E0A128A11C2240A128A11DD
:10044800831203134D08F3004C08F2004408F5002A
:100458004308F4000A128A11E9230A128A11730860
:1004680083120313C4007208C3000A30F20000307C
:10047800F3004D08F5004C08F4000A128A1176239F
:100488000A128A11730883120313CD007208CC0074
:100498004D08803AFF0080307F02031D552A013045
:1004A8004C020318582A592A0E2A5A2A0800F90019
:1004B80079088400831300080319632A642AEA2A46
:1004C8003C30F2000030F300013083120313BE0009
:1004D800790A84003E0880070008BF00C0013F0871
:1004E800F4004008F5000A128A11E9230A128A1159
:1004F800720883120313C100790A84004108831328
:100508008000790A84000008031D8B2A8C2AEA2AB5
:100518003C30F2000030F3000130BE007908023EA2
:1005280084003E0880070008BF00C0013F08F400AF
:100538004008F5000A128A11E9230A128A11720882
:1005480083120313C1007908023E84004108831313
:1005580080007908023E84000008031DB42AB52AE9
:10056800EA2A1830F2000030F3000130BE007908A2
:10057800033E84003E0880070008BF00C0013F0812
:10058800F4004008F5000A128A11E9230A128A11B8
:10059800720883120313C1007908033E84004108DE
:1005A800831380007908033E84000008031DDD2AB8
:1005B800DE2AEA2A7908043E840001308007840A8A
:1005C8000318800AEA2AEA2AEA2AEA2A0800F40032
:1005D8008312031308117408F20004300310F20C9C
:1005E800FF3E031DF22A7208F30004300310F30DD6
:1005F800FF3E031DFA2A08080F3973048800881182
:1006080074030319082B092B102B02307406031DE1
:100618000E2B0F2B1A2B102B0330F3009730F20000
:10062800F20B142BF30B142B192B1F2B0D30F2008C
:10063800F20B1C2B1F2B831203138815F030740543
:10064800F20020307206031D2A2B2B2B492B081190
:100658007408F20004300310F20CFF3E031D2F2B28
:100668007208F30004300310F30DFF3E031D372B0F
:1006780008080F397304880088110D30F200F20B56
:10068800432B831203138815492B08117408F200B1
:1006980004300310F20DFF3E031D4D2B08080F39DF
:1006A800720488008811740303195B2B5C2B632B7D
:1006B80002307406031D612B622B6D2B632B0330F4
:1006C800F3009730F200F20B672BF30B672B6C2BC0
:1006D800722B0D30F200F20B6F2B722B8312031367
:1006E8008815080083120313BF01F31F7C2B7D2B91
:1006F800852BF209F309F20A0319F30ABF01BF0AAD
:10070800852BF51F882B892B932BF409F509F40AFF
:100718000319F50A0130F6007608BF06932BC001CD
:10072800C1017208730403199A2B9B2BD82BBE01A5
:10073800BE0AAA2B01300310F20DF30DFF3E031D74
:100748009F2B0130F6007608BE07AA2BF31FAD2BAE
:10075800AE2B9E2BB02BB02B01300310C00DC10D5A
:10076800FF3E031DB12B73087502031DBD2B7208D4
:100778007402031CC02BC12BC92B7208F402730826
:10078800031CF503F5024014C92B01300310F30CC8
:10079800F20CFF3E031DCA2B0130BE02031DD52BF0
:1007A800D62BB02BD82BD82B3F080319DC2BDD2BED
:1007B800E32BC009C109C00A0319C10AE32B410888
:1007C800F3004008F200E82B0800F801F51FED2BB4
:1007D800EE2BF62BF409F509F40A0319F50AF801CA
:1007E800F80AF62BF31FF92BFA2B002CF209F30960
:1007F800F20A0319F30A002C720873040319052C72
:10080800062C3B2CF701F70A152C01300310F20DCA
:10081800F30DFF3E031D0A2C0130F6007608F7079A
:10082800152CF31F182C192C092C1B2C1B2C7308A6
:100838007502031D212C72087402031C242C252C1C
:100848002C2C7208F4027308031CF503F5022C2CF7
:1008580001300310F30CF20CFF3E031D2D2C013068
:10086800F702031D382C392C1B2C3B2C3B2C780809
:1008780003193F2C402C462CF409F509F40A0319F6
:10088800F50A462C7508F3007408F2004B2C080092
:100898006430F2000030F3000A128A1152250A125D
:1008A8008A11831603130811881108128812081375
:1008B80088136430F2000030F3000A128A115225BE
:1008C8000A128A1183120313881528300A128A1112
:1008D800EB220A128A110C300A128A11EB220A1230
:1008E8008A1101300A128A11EB220A128A11023087
:1008F8000A128A11EB220A128A116430F2000030BF
:10090800F3000A128A1152250A128A11080083126A
:100918000313C0007808BE003E08BF007808BE0078
:100928003E08F50040080A128A117D250A128A112C
:10093800B42C790884000A128A1124250A128A1113
:100948000A128A11C2240A128A110130831203136F
:10095800BE003E08F9070130BE003E08BF07B42CB0
:10096800790884000A128A1124250A128A11003A89
:10097800031DBF2CC02C9D2CC12C0800F400831231
:10098800031308157408F20004300310F20CFF3E3C
:10099800031DC92C7208F30004300310F30DFF3E49
:1009A800031DD12C08080F397304880088110D30F5
:1009B800F200F20BDD2C8312031388150815740856
:1009C800F20004300310F20DFF3E031DE62C080868
:1009D8000F397204880088110D30F200F20BF22CE6
:1009E80083120313881508000B1DFB2CFC2C032D08
:1009F8000B110A128A1190250A128A11032D8312EB
:100A080003130C1C082D092D102D0C100A128A1125
:100A180069250A128A11102D831203138C1C152DB7
:100A2800162D1D2D8C100A128A11B2250A128A1150
:100A38001D2D71088A00700E8300FE0E7E0E0900BF
:100A480005308A000408840A8207003430343034C0
:100A58003A343034303420342034203420342034B4
:100A68002034303430343A34303430340034F20006
:100A78007208840083138001720A8400800172085E
:100A8800023E840080017208033E840080017208DF
:100A9800043E84008001840A80010800612DC7306B
:100AA800F400562DF40B552D592D5A2D0130F20214
:100AB8000030031CF303F302612D72087304031D55
:100AC800662D672D532D682D0800FC308312031303
:100AD8008F0018308E00220823040319742D752DF9
:100AE8007C2D0130A2020030031CA303A3027C2D3D
:100AF8000800F7007708F60006300310F60DFF3EF1
:100B0800031D812D750876077F39803E0A128A11E8
:100B1800EB220A128A11080006308312031381009F
:100B2800240825040319992D9A2DA12D0130A4021A
:100B38000030031CA503A502A12D08008B13831602
:100B4800031381110108F839013881008112063038
:100B58008312031381008B128B170800831203136F
:100B6800200821040319B92DBA2DC12D0130A00286
:100B78000030031CA103A102C12D08000630831216
:100B8800031381007308A5007208A4008B160800DF
:100B9800F4007208F300740884007308831380005B
:100BA800080064008001840A04060319003404065E
:100BB800D62D831203132508F3002408F200E42D30
:100BC800080083120313080C0139EA2D0800831268
:100BD800031308080139F02D0800831603130814BD
:040BE8008814080065
:04400E00D4E0FFFFFC
:00000001FF
